:100000000C942A000C943F020C943F020C943F0283
:100010000C943F020C943F020C943F020C943F025C
:100020000C943F020C943F020C943F020C943F024C
:100030000C943F020C9476010C943F020C943F0206
:100040000C943F020C943F020C943F020C943F022C
:100050000C943F0211241FBECFE5D8E0DEBFCDBF18
:0C0060000E94F8010C943400F894FFCFCB
:10006C000E94200258F00E94190240F029F45F3FD0
:10007C0029F00C942E0251110C9428020C943C0281
:10008C000E949F0168F39923B1F3552391F3951BBB
:10009C00550BBB27AA2762177307840738F09F5F9D
:1000AC005F4F220F331F441FAA1FA9F335D00E2E0A
:1000BC003AF0E0E832D091505040E695001CCAF777
:1000CC002BD0FE2F29D0660F771F881FBB1F26173A
:1000DC0037074807AB07B0E809F0BB0B802DBF0111
:1000EC00FF2793585F4F3AF09E3F510578F00C94E0
:1000FC002E020C9428025F3FE4F3983ED4F38695CD
:10010C0077956795B795F7959F5FC9F7880F911D00
:10011C009695879597F90895E1E0660F771F881FEC
:10012C00BB1F621773078407BA0720F0621B730B9F
:0C013C00840BBA0BEE1F88F7E0950895C5
:100148000E94190238F00E94200220F039F49F3FE3
:1001580019F426F40C943C020EF4E095E7FB0C9499
:100168002E02E92F0E949F0158F3BA1762077307FE
:100178008407950720F079F4A6F50C9427020EF46D
:10018800E0950B2EBA2FA02D0B01B90190010C019F
:10019800CA01A0011124FF27591B99F0593F50F4B7
:1001A800503E68F11A16F040A22F232F342F44270F
:1001B800585FF3CF469537952795A795F040539507
:1001C800C9F77EF41F16BA0B620B730B840BBAF0D7
:1001D8009150A1F0FF0FBB1F661F771F881FC2F742
:1001E8000EC0BA0F621F731F841F48F48795779556
:1001F8006795B795F7959E3F08F0B0CF9395880F10
:0C02080008F09927EE0F97958795089550
:10021400E89409C097FB3EF490958095709561959C
:100224007F4F8F4F9F4F9923A9F0F92F96E9BB2752
:100234009395F695879577956795B795F111F8CFCE
:10024400FAF4BB0F11F460FF1BC06F5F7F4F8F4F39
:100254009F4F16C0882311F096E911C0772321F02F
:100264009EE8872F762F05C0662371F096E8862FC7
:1002740070E060E02AF09A95660F771F881FDAF71E
:0A028400880F9695879597F9089565
:10028E000E94A70188F09F5798F0B92F9927B75170
:10029E00B0F0E1F0660F771F881F991F1AF0BA951C
:1002AE00C9F714C0B13091F00E942702B1E0089551
:1002BE000C942702672F782F8827B85F39F0B93F43
:1002CE00CCF3869577956795B395D9F73EF49095CF
:0E02DE008095709561957F4F8F4F9F4F0895CB
:1002EC001F920F920FB60F9211242F933F934F939F
:1002FC005F936F937F938F939F93AF93BF93EF9382
:10030C00FF938CB195E39A95F1F700000E943402AB
:10031C00FF91EF91BF91AF919F918F917F916F91D1
:10032C005F914F913F912F910F900FBE0F901F90A7
:02033C00189512
:10033E0057FD9058440F551F59F05F3F71F0479588
:10034E00880F97FB991F61F09F3F79F0879508956D
:10035E00121613061406551FF2CF4695F1DF08C08C
:10036E00161617061806991FF1CF869571056105A9
:04037E000894089542
:10038200BC01990F880B990B0E940C019B01AC01D7
:1003920060E074E284E799E40E94380220E030E0F1
:1003A20040E85FE30E940B020E94120269B970BD2D
:0203B2000895AC
:1003B400092E0394000C11F4882352F0BB0F40F46F
:1003C400BF2B11F460FF04C06F5F7F4F8F4F9F4FAF
:0203D40008958A
:1003D600892B41F06C9A8DB183608DB987B3806BA0
:0A03E60087BB01C0BE9A6E9A08950D
:1003F00063E070E081E090E00E94EB0180E895E22C
:080400000E9404027894FFCF72
:0E0408002AB128612AB9579A0E94C1010895AD
:0E0416005058BB27AA270E94B5000C94DA01AB
:0E0424000E9447016894B1110C9428020895BB
:0E04320000240A9416161706180609060895E7
:0E04400000240A9412161306140605060895E9
:0E044E00E894BB2766277727CB0197F908951E
:0C045C0097F99F6780E870E060E0089569
:080468008FB9779BFECF0895C8
:080470000E9446000C94DA0121
:060478009FEF80EC0895E7
:04047E000C940000DA
:00000001FF
