:100000000C942A000C948F000C948F000C948F0099
:100010000C948F000C948F000C948F000C948F0024
:100020000C948F000C948F000C948F000C948F0014
:100030000C9436000C948F000C948F000C948F005D
:100040000C948F000C948F000C948F000C948F00F4
:100050000C948F0011241FBECFE5D8E0DEBFCDBFCA
:0C0060000E947F000C943400F894FFCF45
:10006C001F920F920FB60F9211242F933F934F9321
:10007C005F936F937F938F939F93AF93BF93EF9304
:10008C00FF938FB1E7E8F3E13197F1F700C000007F
:10009C00813619F40E9493000EC0823619F40E9426
:1000AC00970009C0833619F40E94950004C0843669
:1000BC0011F40E949900FF91EF91BF91AF919F9124
:1000CC008F917F916F915F914F913F912F910F90F5
:0800DC000FBE0F901F90189554
:1000E400892B41F06C9A8DB183608DB987B3806B95
:0A00F40087BB01C0BE9A6E9A089502
:1000FE000E948B0063E070E080E090E00E9472004E
:08010E000E9491007894FFCFDC
:0801160084B3846884BB0895E2
:04011E000C9400003D
:040122006F9A089533
:04012600AA9A0895F4
:04012A00AF9A0895EB
:04012E00AA980895EE
:04013200AF980895E5
:00000001FF
